:04000000C0EF0AF053
:101000000031323334350000026EA1D00150D8B423
:1010100002D092801200929012000150D8B402D0F7
:1010200092821200929212000150D8B402D092849F
:101030001200929412000150D8B402D0928612008D
:10104000929612000150D8B402D0928A1200929A5D
:1010500012000150D8B402D096801200969012006F
:101060000150D8B402D0968212009692120001501C
:10107000D8B402D096841200969412000150D8B4CD
:1010800002D0948A1200949A12000150D8B402D06F
:1010900093881200939812000150D8B402D0938A1A
:1010A0001200939A12000150D8B402D0938012001B
:1010B000939012000150D8B402D0948E1200949EE6
:1010C00012000150D8B402D0948C1200949C1200EB
:1010D0000150D8B402D094881200949812000150A4
:1010E000D8B402D094861200949612000150D8B45D
:1010F00002D092881200929812000150D8B402D007
:1011000094801200949012000150D8B402D09386BB
:101110001200939612000150D8B402D095801200AC
:10112000959012000150D8B402D095821200959289
:1011300012000150D8B402D0938212009392120090
:101140000150D8B402D0938412009394120002503C
:10115000000AD8B45BD7010AD8B45FD7030AD8B461
:1011600063D7010AD8B467D7070AD8B46BD7010A86
:10117000D8B46FD7030AD8B473D7010AD8B477D7D5
:101180000F0AD8B47BD7010AD8B47FD7030AD8B4E2
:1011900083D7010AD8B487D7070AD8B48BD7010AF6
:1011A000D8B48FD7030AD8B493D7010AD8B497D745
:1011B0001F0AD8B49BD7010AD8B49FD7030AD8B462
:1011C000A3D7010AD8B4A7D7070AD8B4ABD7010A66
:1011D000D8B4AFD7030AD8A41200B2D7026EA1D0F8
:1011E0000150D8B402D089801200899012000150B9
:1011F000D8B402D089821200899212000150D8B46A
:1012000002D089841200899412000150D8B402D00F
:1012100089861200899612000150D8B402D0898ABA
:101220001200899A12000150D8B402D08D801200A9
:101230008D9012000150D8B402D08D8212008D9290
:1012400012000150D8B402D08D8412008D94120087
:101250000150D8B402D08B8A12008B9A1200015030
:10126000D8B402D08A8812008A9812000150D8B4EB
:1012700002D08A8A12008A9A12000150D8B402D091
:101280008A8012008A9012000150D8B402D08B8E4E
:1012900012008B9E12000150D8B402D08B8C120029
:1012A0008B9C12000150D8B402D08B8812008B980E
:1012B00012000150D8B402D08B8612008B96120017
:1012C0000150D8B402D089881200899812000150C8
:1012D000D8B402D08B8012008B9012000150D8B489
:1012E00002D08A8612008A9612000150D8B402D029
:1012F0008C8012008C9012000150D8B402D08C82E5
:1013000012008C9212000150D8B402D08A821200CE
:101310008A9212000150D8B402D08A8412008A94B2
:1013200012000250000AD8B45BD7010AD8B45FD7C4
:10133000030AD8B463D7010AD8B467D7070AD8B468
:101340006BD7010AD8B46FD7030AD8B473D7010A90
:10135000D8B477D70F0AD8B47BD7010AD8B47FD7CF
:10136000030AD8B483D7010AD8B487D7070AD8B4F8
:101370008BD7010AD8B48FD7030AD8B493D7010A00
:10138000D8B497D71F0AD8B49BD7010AD8B49FD72F
:10139000030AD8B4A3D7010AD8B4A7D7070AD8B488
:1013A000ABD7010AD8B4AFD7030AD8A41200B2D77A
:1013B000030E95160F0E8C1683968394000E046E02
:1013C000020E046401D00FD00D0E036EFC0EE82E49
:1013D000FED7032EFCD78C500F0B30098C6EA5EC7A
:1013E0000AF0042AEDD78C500F0B20098C6EA5EC67
:1013F0000AF00D0E036EFC0EE82EFED7032EFCD76E
:10140000280E3CEC0AF0010E3CEC0AF0060E3CEC17
:101410000AF00C0E3CEC0AF0020E3CEC0AF0010E55
:101420003CEC0AF0120014D003C0F6FF04C0F7FF32
:10143000F86A0F0EF76403D00800F55005D0F6CF18
:10144000E9FFF7CFEAFFEF507CEC0AF0034A042AE9
:1014500003C0F6FF04C0F7FFF86A0F0EF76403D06D
:101460000800F55005D0F6CFE9FFF7CFEAFFEF50BF
:101470000009D8B41200D8D7026E839402C001F0DC
:10148000F00E01168C500F0B01108C6EA5EC0AF0BB
:1014900002C001F0013AF00E0116F00E01168C5058
:1014A0000F0B01108C6EA5EC0AF00D0E016EFC0EF8
:1014B000E82EFED7012EFCD71200000E036E070E99
:1014C000036401D007D0010E016E035004EC08F054
:1014D000032AF5D7130E046E160E046401D0120011
:1014E000000E016E045004EC08F0000E016E045072
:1014F000EEEC08F0042AF0D7026E838402C001F0FB
:10150000F00E01168C500F0B01108C6EA5EC0AF03A
:1015100002C001F0013AF00E0116F00E01168C50D7
:101520000F0B01108C6EA5EC0AF01200C180C18275
:10153000C184C186CF0EC116C086C088C08AC05083
:10154000F80B0609C06EC09E12008386A60EE82E18
:10155000FED700D08396A60EE82EFED700D012004C
:10156000B9EC0AF0010E036E100E046E13EC0AF0D3
:10157000F9D75DEC0AF096EC0AF0D8EC09F012000D
:0A158000000EF86E0001B0EF0AF053
:020000040020DA
:08000000FFFFFFFFFFFFFFFF00
:020000040030CA
:0E000000FF061B1FFF8181FF0FC00FE00F40A6
:00000001FF
