:04000000DDEF0CF034
:071000000020202020000069
:10100800026EA1D00150D8B402D092801200929002
:1010180012000150D8B402D09282120092921200AB
:101028000150D8B402D09284120092941200015058
:10103800D8B402D092861200929612000150D8B409
:1010480002D0928A1200929A12000150D8B402D0AB
:1010580096801200969012000150D8B402D0968261
:101068001200969212000150D8B402D09684120051
:10107800969412000150D8B402D0948A1200949A1F
:1010880012000150D8B402D093881200939812002D
:101098000150D8B402D0938A1200939A12000150DA
:1010A800D8B402D093801200939012000150D8B4A3
:1010B80002D0948E1200949E12000150D8B402D02F
:1010C800948C1200949C12000150D8B402D09488D9
:1010D8001200949812000150D8B402D094861200DD
:1010E800949612000150D8B402D0928812009298B7
:1010F80012000150D8B402D09480120094901200CB
:101108000150D8B402D09386120093961200015071
:10111800D8B402D095801200959012000150D8B42E
:1011280002D095821200959212000150D8B402D0D4
:1011380093821200939212000150D8B402D0938483
:101148001200939412000250000AD8B45BD7010A27
:10115800D8B45FD7030AD8B463D7010AD8B467D71D
:10116800070AD8B46BD7010AD8B46FD7030AD8B422
:1011780073D7010AD8B477D70F0AD8B47BD7010A36
:10118800D8B47FD7030AD8B483D7010AD8B487D78D
:10119800070AD8B48BD7010AD8B48FD7030AD8B4B2
:1011A80093D7010AD8B497D71F0AD8B49BD7010A96
:1011B800D8B49FD7030AD8B4A3D7010AD8B4A7D7FD
:1011C800070AD8B4ABD7010AD8B4AFD7030AD8A452
:1011D8001200B2D7026EA1D00150D8B402D08980D3
:1011E8001200899012000150D8B402D089821200EE
:1011F800899212000150D8B402D0898412008994CF
:1012080012000150D8B402D08986120089961200C3
:101218000150D8B402D0898A1200899A120001506C
:10122800D8B402D08D8012008D9012000150D8B42D
:1012380002D08D8212008D9212000150D8B402D0D3
:101248008D8412008D9412000150D8B402D08B8A7C
:1012580012008B9A12000150D8B402D08A8812006A
:101268008A9812000150D8B402D08A8A12008A9A49
:1012780012000150D8B402D08A8012008A9012005D
:101288000150D8B402D08B8E12008B9E12000150F0
:10129800D8B402D08B8C12008B9C12000150D8B4A9
:1012A80002D08B8812008B9812000150D8B402D05B
:1012B8008B8612008B9612000150D8B402D0898810
:1012C8001200899812000150D8B402D08B80120005
:1012D8008B9012000150D8B402D08A8612008A96E8
:1012E80012000150D8B402D08C8012008C901200E9
:1012F8000150D8B402D08C8212008C921200015096
:10130800D8B402D08A8212008A9212000150D8B44E
:1013180002D08A8412008A9412000250000AD8B4BB
:101328005BD7010AD8B45FD7030AD8B463D7010AD8
:10133800D8B467D7070AD8B46BD7010AD8B46FD71F
:10134800030AD8B473D7010AD8B477D70F0AD8B428
:101358007BD7010AD8B47FD7030AD8B483D7010A48
:10136800D8B487D7070AD8B48BD7010AD8B48FD78F
:10137800030AD8B493D7010AD8B497D71F0AD8B4A8
:101388009BD7010AD8B49FD7030AD8B4A3D7010AB8
:10139800D8B4A7D7070AD8B4ABD7010AD8B4AFD7FF
:1013A800030AD8A41200B2D70FC028F010C029F041
:1013B800000E29BEFF0E2A6E2B6E10AE1AD028C062
:1013C80001F029C002F02AC003F02BC004F0FF0E80
:1013D800056EFF0E066EFF0E076EFF0E086E0EEC12
:1013E8000CF001C028F002C029F003C02AF004C0A4
:1013F8002BF0285029102A102B10D8A404D0300E16
:1014080079EC0CF01200000E276E000E266E4BD001
:1014180028C001F029C002F02AC003F02BC004F054
:101428000A0E056E000E066E000E076E000E086EA0
:101438004AEC0BF00150256E150E2624D96E000ECD
:101448002720DA6E2550300FDF6E25C011F0126AA2
:10145800136A146A111E121E131E141E112A000E7E
:1014680012221322142228501124016E295012200E
:10147800026E2A501320036E2B501420046E0A0E9D
:10148800056E000E066E000E076E000E086EE4EC88
:101498000AF001C028F002C029F003C02AF004C0F5
:1014A8002BF0264A272A285029102A102B10D8A4B6
:1014B800AFD72606D8A0270610AE03D02D0E79EC9C
:1014C8000CF027BE1200150E2624D96E000E272018
:1014D800DA6EDF5079EC0CF02606D8A02706F1D793
:1014E800076EC190C192C194C196C2802AD0C2949D
:1014F800C296C298C29A44D0C250C30B04091FD0E6
:10150800C250C30B08091BD0C250C30B0C0917D01B
:10151800C250C30B100913D0C250C30B14090FD00B
:10152800C250C30B18090BD0C250C30B1C0907D0FB
:10153800C250C30B2C0903D0C250C30B3009C26E72
:101548001FD00750000AD8B4D2D7010AD8B4D4D7CC
:10155800030AD8B4D5D7010AD8B4D6D7070AD8B45D
:10156800D7D7010AD8B4D8D7030AD8B4D9D7010A2B
:10157800D8B4DAD70E0AD8B4DBD7020AD8B4DCD785
:10158800C282C2B2FED7C180C182C184C186C29064
:10159800C3CF03F0060E046ED8900332042EFCD796
:1015A800C450056E066AD89005360636D8900536BA
:1015B800063603500524016E000E0620026E120046
:1015C800000E0A6E08AE0AD0081E071E061E056C1D
:1015D800000E062207220822010E0A6E04AE0AD067
:1015E800041E031E021E016C000E022203220422A6
:1015F800010E0A1A000E0B6E000E0C6E000E0D6E18
:10160800000E0E6E0550061007100810D8B42AD028
:10161800010E096E06D0D89005360636073608360C
:10162800092A08AEF8D7D8900B360C360D360E3688
:101638000550015C065002580750035808500458DA
:10164800D8A009D00550015E0650025A0750035A27
:101658000850045A0B80D8900832073206320532F7
:10166800092EE1D70A50D8B408D00E1E0D1E0C1E44
:101678000B6C000E0C220D220E220BC001F00CC0C8
:1016880002F00DC003F00EC004F01200000E0A6E46
:1016980004AE0AD0041E031E021E016C000E0222B4
:1016A80003220422010E0A6E08AE08D0081E071E87
:1016B800061E056C000E0622072208220550061099
:1016C80007100810D8B424D0010E096E06D0D8909F
:1016D8000536063607360836092A08AEF8D7055003
:1016E800015C065002580750035808500458D8A007
:1016F80008D00550015E0650025A0750035A085098
:10170800045AD8900832073206320532092EE7D734
:101718000A50D8B408D0041E031E021E016C000E25
:1017280002220322042201C001F002C002F003C019
:1017380003F004C004F01200030E95160F0E8C1669
:1017480083968394000E046E020E046401D00FD0B9
:101758000D0E036EFC0EE82EFED7032EFCD78C5020
:101768000F0B30098C6EE8EC0CF0042AEDD78C5086
:101778000F0B20098C6EE8EC0CF00D0E036EFC0EBE
:10178800E82EFED7032EFCD7280E39EC0CF0010EFC
:1017980039EC0CF0060E39EC0CF00C0E39EC0CF0B0
:1017A800020E39EC0CF0010E39EC0CF01200F3ECDF
:1017B8000CF0000E016E000E026E000E036E000E9D
:1017C80093EC0CF0010E036E000ED1EC0CF0070E3A
:1017D80074EC0AF001C00FF002C010F0D8EC09F068
:1017E800000E016E120E04EC08F0010E036E000EDE
:1017F800D1EC0CF0070E74EC0AF001C00FF002C037
:1018080010F0D8EC09F0010E036E100E046EADEC6A
:101818000CF0EBD7000E096E000E0A6E000E0B6E70
:10182800000E0C6E01A008D00550092606500A22A9
:1018380007500B2208500C22D8900536063607367A
:101848000836D890043203320232013201500210B5
:1018580003100410D8A4E6D709C001F00AC002F0AA
:101868000BC003F00CC004F01200026E839402C097
:1018780001F0F00E01168C500F0B01108C6EE8EC85
:101888000CF002C001F0013AF00E0116F00E01163C
:101898008C500F0B01108C6EE8EC0CF00D0E016EE5
:1018A800FC0EE82EFED7012EFCD71200000E036EA8
:1018B8000B0E036401D007D0010E016E035004EC37
:1018C80008F0032AF5D7130E046E160E046401D02F
:1018D8001200000E016E045004EC08F0000E016EB8
:1018E8000450EEEC08F0042AF0D7026E838402C09C
:1018F80001F0F00E01168C500F0B01108C6EE8EC05
:101908000CF002C001F0013AF00E0116F00E0116BB
:101918008C500F0B01108C6EE8EC0CF01200046E6A
:1019280013D002C036F003C037F004D0F18C09D0D0
:10193800F19C07D00150000AD8B4F8D7010AD8B4EE
:10194800F7D7F292F28812000450000AD8A41200C5
:10195800E8D70AD003C0F6FF04C0F7FF0800F55027
:1019680079EC0CF0034A042A03C0F6FF04C0F7FF21
:101978000800F5500009D8B41200ECD7C180C18224
:10198800C184C186CF0EC116C086C088C08AC05027
:10199800F80B0609C06EC09E1200046E020E39ECE8
:1019A8000CF00350400DF3500424800F39EC0CF078
:1019B800120000EE2CF00C0EEE6AE806FDE1000EB7
:1019C800F86E0001DBEF0BF08386A60EE82EFED73B
:1019D80000D08396A60EE82EFED700D012005AEC4F
:1019E8000CF0C2EC0CF0FCEC0CF0A0EC0BF01200CC
:0E19F800D08EF28EF28CF298F098F0961200DB
:020000040020DA
:08000000FFFFFFFFFFFFFFFF00
:020000040030CA
:0E000000FF061B1FFF8181FF0FC00FE00F40A6
:00000001FF
